:100000000C9434000C9446000C9446000C9446006A
:100010000C9446000C9446000C9446000C94460048
:100020000C9446000C9446000C9446000C94460038
:100030000C9446000C9446000C9446000C94460028
:100040000C9446000C9446000C9446000C94A000BE
:100050000C9446000C94D0000C9446000C9446007E
:100060000C9446000C94460011241FBECFEFD8E03C
:10007000DEBFCDBF11E0A0E0B1E001C01D92AE3601
:10008000B107E1F70E9482000C9453010C94000028
:10009000AAE7B0E09C9196609C93ECE7F0E0908139
:1000A000906490839081982B90838C9180628C9344
:1000B0008C9180688C938C9188608C938C918064F7
:1000C0008C937894089584B5836884BD85B58460E5
:1000D00085BD8FE787BD789408951092C50080E1B3
:1000E0008093C400E0ECF0E0808182608083E1ECEA
:1000F000F0E0808188618083E2ECF0E080818660BE
:1001000080830895569A0E94630080E00E94480010
:100110000E946D00FFCF982F8091C00085FFFCCF1B
:100120009093C6000895FC0107C08091C00085FF30
:10013000FCCF9093C600319690819923B1F7089532
:100140001F920F920FB60F9211242F933F934F934C
:100150005F936F937F938F939F93AF93BF93EF932F
:10016000FF930E944F01892B29F00E943001809358
:10017000C60005C08091C1008F7D8093C100FF91B2
:10018000EF91BF91AF919F918F917F916F915F910F
:100190004F913F912F910F900FBE0F901F90189588
:1001A0001F920F920FB60F9211242F933F934F93EC
:1001B0005F936F937F938F939F93AF93BF93EF93CF
:1001C000FF9380917800909179009093040180933F
:1001D000030187EF0E940A01809104010E940A0135
:1001E000809103010E940A01E1ECF0E080818062CD
:1001F0008083FF91EF91BF91AF919F918F917F91FC
:100200006F915F914F913F912F910F900FBE0F9083
:100210001F901895382F20916D01822F90E0843621
:1002200091051CF02FEF3FEF19C0809105019091CF
:100230000601FC01E75FFE4F30832F5F20936D01C5
:10024000019690930601809305018436910524F070
:10025000109206011092050120E030E0C9010895D6
:1002600020916D01222311F4EFEF17C08091070157
:1002700090910801FC01E75FFE4FE08101969093A9
:10028000080180930701215020936D018436910568
:1002900024F010920801109207018E2F089580918A
:0A02A0006D0190E00895F894FFCF7F
:00000001FF
