:100000000C94B4000C94C6000C94C6000C94C6006A
:100010000C94C6000C94C6000C94C6000C94C60048
:100020000C94C6000C94C6000C94C6000C94C60038
:100030000C94C6000C94C6000C94C6000C94C60028
:100040000C94C6000C94C6000C94C6000C945B0182
:100050000C94C6000C948B010C94C6000C94C60042
:100060000C94C6000C94C600808386898C8F929570
:10007000989B9EA2A5A7AAADB0B3B6B9BCBEC1C499
:10008000C6C9CBCED0D3D5D7DADCDEE0E2E4E6E8F1
:10009000EAEBEDEEF0F1F3F4F5F6F8F9FAFAFBFC21
:1000A000FDFDFEFEFEFFFFFFFFFFFFFFFEFEFEFD6C
:1000B000FDFCFBFAFAF9F8F6F5F4F3F1F0EEEDEBEE
:1000C000EAE8E6E4E2E0DEDCDAD7D5D3D0CECBC98D
:1000D000C6C4C1BEBCB9B6B3B0ADAAA7A5A29E9B0B
:1000E0009895928F8C898683807C797673706D6AFF
:1000F0006764615D5A5855524F4C494643413E3BF7
:10010000393634312F2C2A282523211F1D1B19177E
:10011000151412110F0E0C0B0A090706050504032E
:1001200002020101010000000000000001010102C3
:1001300002030405050607090A0B0C0E0F11121421
:100140001517191B1D1F212325282A2C2F31343662
:10015000393B3E414346494C4F5255585A5D6164C4
:10016000676A6D707376797C11241FBECFEFD8E07B
:10017000DEBFCDBF11E0A0E0B1E001C01D92AF36FF
:10018000B107E1F70E9416010C940F020C940000D5
:1001900010928500109284008FE79EE39093870071
:1001A00080938600E1E8F0E0808189618083789423
:1001B0000895AAE7B0E09C9197609C93EBE7F0E08C
:1001C000908197609083ECE7F0E090819064908359
:1001D0009081982B90838C9180628C938C91806815
:1001E0008C938C9188608C938C9180648C9308950F
:1001F00084B5836884BD85B5816085BD8FE787BD83
:1002000008951092C50083E08093C400E0ECF0E014
:10021000808182608083E1ECF0E08081886080836F
:10022000E2ECF0E08081866080830895569A109217
:10023000000110928500109284008FE79EE3909356
:10024000870080938600809181008961809381007E
:10025000789484B5836884BD85B5816085BD8FE75A
:1002600087BD0E940101809100010E94D90078940D
:1002700020E040EA5FE0E22FF0E0E859FF4FE49130
:10028000E7BD2F5FCA010197F1F7F5CF982F809155
:10029000C00085FFFCCF9093C6000895FC0107C005
:1002A0008091C00085FFFCCF9093C600319690816D
:1002B0009923B1F708951F920F920FB60F92112450
:1002C0002F933F934F935F936F937F938F939F935E
:1002D000AF93BF93EF93FF930E940B02892B29F0FA
:1002E0000E94EC018093C60005C08091C1008F7D03
:1002F0008093C100FF91EF91BF91AF919F918F913A
:100300007F916F915F914F913F912F910F900FBE11
:100310000F901F9018951F920F920FB60F921124F5
:100320002F933F934F935F936F937F938F939F93FD
:10033000AF93BF93EF93FF938091780090917900F2
:10034000909305018093040187EF0E94C60180917C
:1003500005010E94C601809104010E94C601E1ECE2
:10036000F0E0808180628083B59AFF91EF91BF9128
:10037000AF919F918F917F916F915F914F913F913D
:100380002F910F900FBE0F901F901895382F20912E
:100390006E01822F90E0843691051CF02FEF3FEF25
:1003A00019C08091060190910701FC01E65FFE4FA4
:1003B00030832F5F20936E01019690930701809305
:1003C00006018436910524F010920701109206016F
:1003D00020E030E0C901089520916E01222311F43C
:1003E000EFEF17C08091080190910901FC01E65FD1
:1003F000FE4FE081019690930901809308012150FE
:1004000020936E018436910524F010920901109218
:1004100008018E2F089580916E0190E00895F89460
:02042000FFCF0C
:00000001FF
