:100000000C9434000C9446000C9446000C9446006A
:100010000C9446000C9446000C9446000C94460048
:100020000C9446000C9446000C9446000C94460038
:100030000C9446000C9446000C9446000C94460028
:100040000C9446000C9446000C9446000C94460018
:100050000C9446000C9475000C9446000C944600D9
:100060000C9446000C94460011241FBECFEFD8E03C
:10007000DEBFCDBF11E0A0E0B1E001C01D92A53010
:10008000B107E1F70E94D6000C94F6000C94000032
:10009000EAE7F0E0808186608083ACE7B0E08C9195
:1000A00080648C9380818068808380818860808375
:1000B000808180648083089590917C00907F9093EC
:1000C0007C0090917C00982B90937C0080917A002A
:1000D000806480937A0080917A0086FDFCCF209125
:1000E000780030917900C90108951F920F920FB6E0
:1000F0000F9211242F933F934F935F936F937F93AE
:100100008F939F93AF93BF93EF93FF9380E00E94F1
:100110005C00382F809303019093040190930101B8
:1001200080930201209100018091C00085FFFCCFE7
:100130002093C6008091C00085FFFCCF9093C6003D
:100140008091C00085FFFCCF3093C600FF91EF91F6
:10015000BF91AF919F918F917F916F915F914F91DF
:100160003F912F910F900FBE0F901F90189584B55F
:10017000836884BD85B5846085BD8FE787BD78942D
:1001800008951092C50080E18093C400E0ECF0E097
:10019000808182608083E1ECF0E0808188618083EF
:1001A000E2ECF0E08081866080830895569A0E9498
:1001B00048000E94C1000E94B70087EF80930001B1
:1001C000FFCF982F8091C00085FFFCCF9093C60091
:1001D0000895FC0107C08091C00085FFFCCF90937B
:1001E000C600319690819923B1F70895F894FFCF16
:00000001FF
